:020000040800F2
:100000002004002005010008FF0E00086D0900080B
:10001000FD0E0008710100085B0F000800000000E1
:10002000000000000000000000000000030F0008B6
:100030007301000800000000010F0008050F000810
:100040001F0100081F0100081F0100081F01000810
:100050001F0100081F0100081F0100081F01000800
:100060001F0100081F0100081F0100081F010008F0
:100070001F0100081F0100081F0100081F010008E0
:100080001F0100081F0100081F0100081F010008D0
:100090001F0100081F0100081F0100081F010008C0
:1000A0001F0100081F0100081F0100081F010008B0
:1000B0001F0100081F010008000000001F010008C8
:1000C0001F01000800000000000000001F010008E0
:1000D000000000001F0100081F01000800000000D0
:1000E0001F0100081F0100081F010008DFF810D0E1
:1000F00000F02CF8004800479D0F0008AFF3008087
:10010000200400200648804706480047FEE7FEE737
:10011000FEE7FEE7FEE7FEE7FEE7FEE7FEE7FEE7B7
:10012000590F0008ED000008D2B201E000F8012BE1
:10013000491EFBD270470022F6E710B513460A4667
:1001400004461946FFF7F0FF204610BD064C074D48
:1001500006E0E06840F0010394E807009847103497
:10016000AC42F6D3FFF7C6FF0C1000082C100008B5
:10017000FEE7704770B5044600F0F8F80546601CCD
:1001800002D004480078044400F0F0F8401BA0427C
:10019000FAD370BD000000202DE9F84FDFF89C91E4
:1001A000002409F1040A0AF1040B23460F270BF17E
:1001B000040EBBE00125A5402A40AA4276D1DFF813
:1001C00080C14E68A6EB0C0866452BD00DDC032ED3
:1001D00034D005DC36B3012E19D0022E2FD11BE00E
:1001E000112E16D0122E2AD119E0B8F5881F19D079
:1001F00006DCB8F5803F15D0B8F5801F1FD111E09F
:10020000B8F5001F0ED0B8F5041F18D10AE0CB686E
:1002100015E0CB681B1D12E0CB6808330FE0CB68FC
:100220000C330CE08B682BB1012B4FF0080303D08B
:10023000456104E0042302E0056100E00023FF2A99
:1002400001D8064601E000F104064FEA840501D911
:10025000A5F12005D6F8008007FA05FC28EA0C086D
:1002600003FA05F548EA0508C6F800804D68ED0078
:100270005BD5344DAE6946F00106AE61AD6924F040
:10028000030605F0010500952F4D06EB050CDCF883
:100290000850A607360F07FA06F825EA0805DFF822
:1002A000AC80404503D14FF0000810E03DE0DFF89E
:1002B000A080404502D14FF0010808E0DFF89480AB
:1002C000404502D14FF0020801E04FF0030808FA60
:1002D00006F848EA0508CCF808804D68D9F80060AF
:1002E000ED034D4601D5164300E096432E604D6860
:1002F000DAF80060AD03554601D5164300E0964399
:100300002E604D68DBF80060ED025D4601D51643B6
:1003100000E096432E604D68DEF80060AD02754641
:1003200001D5164300E096432E60641C0A6832FA39
:1003300004F57FF43FAFBDE8F88F000000040140F2
:1003400000001110001002400000014000080140B0
:10035000000C0140001001408068084000D00120DE
:1003600070470AB1016170470904FBE701488068E2
:1003700070470000000000200248816802781144A4
:100380008160704700000020074810B5016841F007
:1003900010010160032000F067F8002000F006F86B
:1003A00000F024F8002010BD0020024070B50D4D73
:1003B00004464FF47A712878B1FBF0F00A490968D5
:1003C000B1FBF0F000F0BEFA48B9102C07D20022C1
:1003D0002146501E00F028F800206C6070BD0120FE
:1003E00070BD0000000000200C0000200C4808B583
:1003F000816941F001018161816901F00101009190
:10040000C16941F08051C161C06900F08050009025
:100410000448416821F0E06141F08061416008BD1D
:100420000010024000000140F0B40E4B1B680C4667
:10043000C3F30223C3F10705042D00D90425191DB8
:10044000072901D2002300E0DB1E012606FA05F190
:10045000491E214099409E40761E16403143F0BC13
:1004600000F07CBD0CED00E0064900F007020868D2
:100470004FF6FF03184040EA0220034A1043086089
:10048000704700000CED00E00000FA052DE9F04790
:100490000F46050061D0434E306800F00700B842B7
:1004A00009D2306820F0070038433060306800F02F
:1004B0000700B84251D128683B4C810712D540074C
:1004C00003D5606840F4E06060602878000703D5D9
:1004D000606840F4605060606068A96820F0F000D7
:1004E000084360602878C00728D06868012810D0C9
:1004F0002168022810D0890700292EDA616821F0CE
:10050000030101436160FFF731FF804641F2883902
:100510000DE021688903EFE78901EDE7FFF726FF8A
:10052000A0EB0801494502D90320BDE8F0876068C7
:10053000696800F00C00B0EB810FEFD1306800F07B
:100540000700B8420BD9306820F00700384330600C
:10055000306800F00700B84201D00120E5E72878B4
:10056000400705D56068E96820F4E06008436060F2
:100570002878000706D56068296920F4605040EAB1
:10058000C100606000F018F86168084AC1F3031107
:10059000515CC8400649086006480068FFF706FF3E
:1005A0000020C2E70020024000100240FC0F0008BB
:1005B0000C0000200400002012A185B00FC98DE8B6
:1005C0000F0014A0144A006804905168134801F009
:1005D0000C03042B10D0082B0ED1C1F38343C903A5
:1005E0001DF803000AD5516804AAC1F34041515CCB
:1005F0000A4A5043B0FBF1F005B070470849484340
:10060000FAE7000002030405060708090A0B0C0DAF
:100610000E0F1010010200000010024000127A00BC
:1006200000093D002DE9F84F040070D02078C04D3E
:10063000C00749D06868C0F38100012807D0686806
:10064000C0F38100022809D16868C00306D5286874
:10065000800339D560680028E7D035E06068B0F5E0
:10066000803F0BD010B1B0F5A02F11D0286820F436
:1006700080302860286820F4802002E0286840F458
:1006800080302860606890B1FFF770FE06460AE08F
:10069000286840F480202860F0E700BFFFF766FE7E
:1006A000801B642873D828688003F7D50CE0FFF717
:1006B0005DFE064605E000BFFFF758FE801B64287C
:1006C000F0D828688003F7D420789A4E80074FF03E
:1006D00001094FF0000839D5686810F00C0F07D0F9
:1006E0006868C0F38100022809D16868C00306D495
:1006F0002868800714D52069012808D110E02069F6
:10070000B0B1C6F80090FFF731FE074605E00AE1F8
:10071000FFF72CFEC01B0228C4D828688007F7D535
:100720002868616920F0F80040EAC10028600DE007
:10073000C6F80080FFF71AFE074604E0FFF716FE32
:10074000C01B022823D828688007F7D42078000728
:100750002CD57948A169D9B1C0F80090FFF706FE01
:10076000074604E0FFF702FEC01B02280FD8686AA4
:100770008007F7D571484FF4FA510068B0FBF1F0EB
:10078000009000BF0098411E0091FAD20EE080E078
:10079000C0F80080FFF7EAFD074604E0FFF7E6FD3A
:1007A000C01B022875D8686A8007F7D420784007F4
:1007B00060D5E8690027C00008D4E86940F080509F
:1007C000E861E869012700F0805000905C4801680A
:1007D000C90513D40168834641F480710160FFF7B5
:1007E000C5FD824606E000BFFFF7C0FDA0EB0A0092
:1007F00064284ED8DBF80000C005F5D5E068012874
:100800000AD008B1052813D0286A20F00100286218
:10081000286A20F0040002E0286A40F00100286203
:10082000E06841F2883B98B1FFF7A0FD82460BE0FB
:10083000286A40F004002862EEE700BFFFF796FD4B
:10084000A0EB0A0159455AD8286A8007F6D50CE072
:10085000FFF78CFD824605E0FFF788FDA0EB0A015B
:1008600059454CD8286A8007F6D41FB1E86920F0B2
:100870008050E861E06988B36968C1F381010229A9
:1008800044D00228C6F8608004D0FFF76FFD04460C
:1008900038E034E0FFF76AFD074604E0FFF766FD45
:1008A000C01B02282BD828688001F7D4206AB0F535
:1008B000803F05D16868A16820F400300843686073
:1008C000D4E908010843696821F474110843686099
:1008D000C6F86090FFF74AFD044606E025E000BF39
:1008E000FFF744FD001B022809D828688001F7D5CE
:1008F0001BE000BFFFF73AFD001B022802D90320CE
:10090000BDE8F88F28688001F4D40EE00128F7D004
:100910006868226A00F48031914204D1616A00F46F
:100920007010884201D00120EAE70020E8E70000CB
:100930000010024000004242800442420C000020AD
:100940000070004010B5401EB0F1807F01D301203F
:1009500010BD4FF0E02460610F21601700F0FEFA37
:100960000020A06107202061002010BDFEE70000EC
:1009700010B5D14C012211462046FFF7F2FC0022AF
:1009800002212046FFF7EDFC002204212046FFF75C
:10099000E8FC002208212046FFF7E3FC1021204656
:1009A000FFF7DAFC01280ED1382000F0C7F9C0208B
:1009B00000F0C4F9C1A000F049FA10212046FFF769
:1009C000CBFC0028F9D120212046FFF7C5FC0128E7
:1009D0000ED1382000F0B2F9C02000F0AFF9B9A074
:1009E00000F034FA20212046FFF7B6FC0028F9D1A8
:1009F00040212046FFF7B0FC01280ED1382000F03E
:100A00009DF9C02000F09AF9B0A000F01FFA402133
:100A10002046FFF7A1FC0028F9D180212046FFF7EE
:100A20009BFC01280ED1382000F088F9C02000F08E
:100A300085F9A8A000F00AFA80212046FFF78CFC77
:100A40000028F9D1002201212046FFF78AFC01226B
:100A500002212046FFF785FC002204212046FFF7F3
:100A600080FC002208212046FFF77BFC1021204655
:100A7000FFF772FC01280ED1382000F05FF9C0208A
:100A800000F05CF995A000F0E1F910212046FFF795
:100A900063FC0028F9D120212046FFF75DFC0128E6
:100AA0000ED1382000F04AF9C02000F047F98DA09F
:100AB00000F0CCF920212046FFF74EFC0028F9D1A8
:100AC00040212046FFF748FC01280ED1382000F0D5
:100AD00035F9C02000F032F984A000F0B7F94021C8
:100AE0002046FFF739FC0028F9D180212046FFF786
:100AF00033FC01280ED1382000F020F9C02000F08E
:100B00001DF97CA000F0A2F980212046FFF724FC0B
:100B10000028F9D1002201212046FFF722FC002203
:100B200002212046FFF71DFC012204212046FFF789
:100B300018FC002208212046FFF713FC1021204654
:100B4000FFF70AFC01280ED1382000F0F7F8C0208A
:100B500000F0F4F869A000F079F910212046FFF7C1
:100B6000FBFB0028F9D120212046FFF7F5FB0128E7
:100B70000ED1382000F0E2F8C02000F0DFF861A0CC
:100B800000F064F920212046FFF7E6FB0028F9D1A8
:100B900040212046FFF7E0FB01280ED1382000F06D
:100BA000CDF8C02000F0CAF858A000F04FF940215D
:100BB0002046FFF7D1FB0028F9D180212046FFF71E
:100BC000CBFB01280ED1382000F0B8F8C02000F08F
:100BD000B5F850A000F03AF980212046FFF7BCFBA1
:100BE0000028F9D1002201212046FFF7BAFB00229C
:100BF00002212046FFF7B5FB002204212046FFF723
:100C0000B0FB012208212046FFF7ABFB1021204654
:100C1000FFF7A2FB01280ED1382000F08FF8C0208A
:100C200000F08CF83DA000F011F910212046FFF7EC
:100C300093FB0028F9D120212046FFF78DFB0128E6
:100C40000ED1382000F07AF8C02000F077F835A0F7
:100C500000F0FCF820212046FFF77EFB0028F9D1A8
:100C600040212046FFF778FB01280ED1382000F004
:100C700065F8C02000F062F82CA000F0E7F84021F1
:100C80002046FFF769FB0028F9D180212046FFF7B5
:100C900063FB01280ED1382000F050F8C02000F08E
:100CA0004DF824A000F0D2F880212046FFF754FB35
:100CB0000028F9D110BD0000000C01404B657920DF
:100CC000370000004B657920380000004B65792023
:100CD000390000004B6579202F0000004B6579201A
:100CE000340000004B657920350000004B65792009
:100CF000360000004B657920780000004B657920B4
:100D0000310000004B657920320000004B657920EE
:100D1000330000004B6579202D0000004B657920E1
:100D2000430000004B657920300000004B657920BE
:100D30003D0000004B6579202B0000002DE9F041BB
:100D4000184E054600224FF480713046FFF709FB2C
:100D5000154F002425FA04F000F0010237F81410B2
:100D60003046FFF7FEFA641C082CF3DB4FF40074E6
:100D7000002221463046FFF7F4FA0120FFF7FAF986
:100D8000012221463046FFF7ECFA0120FFF7F2F985
:100D9000002221463046FFF7E4FABDE8F041012089
:100DA000FFF7E8B900080140100000202DE9F041EC
:100DB000184E0546012211023046FFF7D2FA164FAF
:100DC000002400BF25FA04F000F0010237F81410E7
:100DD0003046FFF7C6FA641C082CF3DB4FF40074AE
:100DE000002221463046FFF7BCFA0120FFF7C2F986
:100DF000012221463046FFF7B4FA0120FFF7BAF985
:100E0000002221463046FFF7ACFABDE8F041012050
:100E1000FFF7B0B9000801401000002010B56420B1
:100E2000FFF7A8F93820FFF789FF3820FFF786FF82
:100E30000C20FFF783FF0620FFF780FF0120FFF75C
:100E40007DFFBDE810408020FFF778BF70B50546F4
:100E5000002402E0FFF7AAFF641C285D0028F9D1F6
:100E600070BD00002DE9F04186B0002420480094B8
:100E7000019402940394816941F0040181618169C4
:100E800001F004010491816941F0080181618069E8
:100E9000184F00F0080040F2FF3504900022294668
:100EA0003846FFF75EFADFF8508000220F214046F7
:100EB000FFF757FA0095022601250396CDE9015464
:100EC00069463846FFF768F90F20CDE90005CDE9FE
:100ED000024669464046FFF75FF9F020CDE900047D
:100EE000694640460294FFF757F906B0BDE8F08125
:100EF0000010024000080140000C0140FEE7FEE740
:100F000070477047FFF738BA10B590B0282168468F
:100F1000FFF711F914210AA8FFF70DF9022000903C
:100F20000120049010200024059007946846FFF7E4
:100F300079FB08B172B6FEE70F20CDE90A040C94E4
:100F40000D9400210AA80E94FFF7A0FA002801D002
:100F500072B6FEE710B010BD7047FEE70907090E34
:100F6000002804DB00F1E02080F80014704700F056
:100F70000F0000F1E02080F8141D704702E008C85F
:100F8000121F08C1002AFAD170477047002001E003
:100F900001C1121F002AFBD170470000FFF7F4F9CE
:100FA000FFF7B2FFFFF75EFF0F480121018002212A
:100FB0004180042181800821C180102101812021EC
:100FC0004181402181818021C181FFF727FF4FF4BA
:100FD0007A70FFF7CFF805A0FFF738FFFFF7C8FCDE
:100FE0006420FFF7C7F8F9E710000020796F75203B
:100FF0007072657373206B6579000000000000005B
:101000000000000001020304060708092C10000874
:1010100000000020100000007C0F00083C100008B9
:1010200010000020100400008C0F000801000000D8
:0C10300010000000000000000024F4008C
:04000005080000ED02
:00000001FF
